:020000022000DC
:10000000000004200903020031030200DD31020078
:10001000350302003703020039030200000000002C
:100020000000000000000000000000003B03020090
:100030003D030200000000003F03020041030200F4
:10004000E9370200430302004303020043030200B6
:100050004303020043030200B157020043030200BE
:100060004303020043030200430302004303020070
:100070004303020043030200430302004303020060
:1000800043030200C931020043030200430302009C
:100090004303020043030200430302004303020040
:1000A0004303020043030200430302004303020030
:1000B00043030200430302000000000000000000B0
:1000C0004303020043030200430302004303020010
:1000D000430302004303020043030200B14802004D
:1000E0004303020043030200430302000000000038
:1000F0000000000043030200000000004303020070
:1001000000000000000000000000000000000000EF
:1001100000000000000000000000000000000000DF
:1001200000000000000000000000000000000000CF
:1001300000000000000000000000000000000000BF
:1001400000000000000000000000000000000000AF
:10015000000000000000000000000000000000009F
:10016000000000000000000000000000000000008F
:10017000000000000000000000000000000000007F
:10018000000000000000000000000000000000006F
:10019000000000000000000000000000000000005F
:1001A000000000000000000000000000000000004F
:1001B000000000000000000000000000000000003F
:1001C000000000000000000000000000000000002F
:1001D000000000000000000000000000000000001F
:1001E000000000000000000000000000000000000F
:1001F00000000000000000000000000000000000FF
:100200000348044B834202D0034B03B118477047A5
:100210003000002030000020000000000548064BA0
:100220001B1AD90F01EBA301491002D0034B03B1F4
:100230001847704730000020300000200000000008
:1002400010B5064C237843B9FFF7DAFF044B13B11E
:100250000448AFF300800123237010BDB8000020D4
:1002600000000000DC87020008B5054B1BB1054902
:100270000548AFF30080BDE80840FFF7CFBF00BFDF
:1002800000000000BC000020DC870200A3F5803ADB
:10029000704700BF174B002B08BF134B9D46FFF75D
:1002A000F5FF00218B460F461348144A121A07F037
:1002B000F9FB0E4B002B00D098470D4B002B00D0C4
:1002C00098470020002104000D000D48002802D0AE
:1002D0000C48AFF3008007F0EDFB2000290007F089
:1002E00091FB07F0CDFB00BF0000080000000000FC
:1002F0000000000000000420B8000020B031002001
:1003000000000000000000000649074A074B9B1A46
:1003100003DD043BC858D050FBDC00F013F8FFF7B6
:10032000B9FF0000F488020000000020B80000209F
:10033000FEE7FEE7FEE7FEE7FEE7FEE7FEE7FEE795
:10034000FEE7FEE710B44FF08053D3F83021082ABF
:100350002FD06A4AD2F8883043F47003C2F888304C
:10036000BFF34F8FBFF36F8F4FF08053D3F830211F
:10037000082A11D04FF01023D3F80022002AC0F22F
:100380008C80D3F80432002BC0F287805C4B5D4A2E
:100390001A605DF8044B7047D3F83431032BE9D968
:1003A0004FF010224FF08043D2F80822C3F85825AE
:1003B000E0E74FF080410020C1F80C01524AC1F83B
:1003C0001001C1F83805D3F80404C2F82005D3F8A9
:1003D0000804C2F82405D3F80C04C2F82805D3F8A1
:1003E0001004C2F82C05D3F81404C2F83005D3F871
:1003F0001804C2F83405D3F81C04C2F84005D3F839
:100400002004C2F84405D3F82404C2F84805D3F800
:100410002804C2F84C05D3F82C04C2F85005D3F8D0
:100420003004C2F85405D3F83404C2F86005D3F898
:100430003804C2F86405D3F83C04C2F86805D3F860
:100440004004C2F86C05D3F83401D3F84444C2F830
:10045000704550B14FF08043D3F80024D20744BF19
:100460006FF00102C3F8002473E72848284CC0F855
:100470008C4602F54052FB20C2F81805D1F8E42E54
:10048000D3F858422348134664F303034FF4007231
:10049000C1F8E43EC0F84026DCE71F4A0123C2F859
:1004A0000435D2F80034002BFBD04FF0102312217A
:1004B000194AC3F80012D2F80034002BFBD04FF0D9
:1004C00010231221144AC3F80412D2F80034002B6E
:1004D000FBD000231049C2F80435D1F80034002BBA
:1004E000FBD0BFF34F8F05490C4BCA6802F4E062A2
:1004F0001343CB60BFF34F8F00BFFDE700ED00E07B
:10050000000000200090D00300C0004000500040D8
:10051000488103000090024000E001400400FA0519
:1005200000B585B00346002101AA44F20100CDE9DF
:100530000111039300F004F805B05DF804FB00BF5F
:1005400070B572B605F012FF05F024FC0028FBD14F
:10055000194D6B88FBB9194BD3F8F030DB070DD57B
:10056000174C184E00BE6B88012B07D9A01BC00882
:100570000004154940F0020005F09EFEBFF34F8FC6
:100580000E49124BCA6802F4E0621343CB60BFF31A
:100590004F8F00BFFDE70A4C0A4E0D49A01BC00853
:1005A000000440F0010005F087FE044BD3F8F03062
:1005B000DA07D8D5D6E700BF4800002000ED00E0FC
:1005C0007088020058880200407B02000400FA058F
:1005D000347B020072B6024A13680133136070471D
:1005E000D4000020034A1368013B136003B962B6CC
:1005F000704700BFD400002030B583B0134801A974
:1006000002F072FCF8B1124D044628682060002008
:10061000FFF7E0FF0F4B10481B88026801339B1A5D
:100620000021E38002F000FC0346A3800020FFF7D6
:10063000D9FF01A9054802F089FC084B1B68014657
:100640000BB12846984703B030BD00BF0C00002016
:10065000948402008C01002090010020E000002022
:1006600030B50378052B83B0054625D0002B2AD161
:100670002C4B1C683CB1236868889B6898472368AA
:100680005C68002CF7D1284C0020FFF7A3FF2368FB
:1006900013B9264B6A881A800121234802F0CEFB49
:1006A0000020FFF79FFF224B1B6813B10121284652
:1006B0009847236803B030BD1E4BD3F88424D3F889
:1006C0008034DBB23BB31C4801A902F00DFC0446A8
:1006D0000028EFD02B6803600020FFF77BFF134B4F
:1006E00011481B88026801339B1A0021E38002F045
:1006F0009BFB0346A3800020FFF774FF01A90E486F
:1007000002F024FC0A4B1B680146002BD2D028467D
:10071000984703B030BD094BD2B2052A08BF1D4629
:10072000D1E700BFF0000020900100208C010020E4
:10073000E0000020007002400C000020AC840200A9
:100740002DE9F04F89B0002504460E4601929846E7
:10075000049500E0013562680123D2F80490214637
:10076000002204A8C8470028F4D18DF80E00069096
:1007700085B3814682460BE09DF80E306768023BE8
:10078000D7F804B0D8479DF80E309A44554521D982
:1007900062680123D2F804B021460DF10E0206A8CA
:1007A000D84761680123D1F804B00DF10F0221464A
:1007B00006A8D8479DF80F30B3424FF000022146FB
:1007C00006A8D9D1019B4B4508D009F101095FFA70
:1007D00089F9D1E7052009B0BDE8F08F129A9DF89C
:1007E0000E30136088F8003088F801606268023BC0
:1007F000556808F10202A847002009B0BDE8F08F53
:10080000F0B5394983B00546082338484FF484725F
:1008100002F052FB002856D1354804F0B1F80446E6
:1008200010B1204603B0F0BD3249334A334B087053
:1008300010602146482232481C6007F033F93148E5
:100840004822214607F02EF9002D45D095E80700F3
:100850002D4B83E80700002002F06CFE002836D103
:100860002A4C237A65680BB304F1090C4FF0030E90
:10087000244E234F1EFB03CE9CF8010090B19CF840
:10088000022010446044624412F8011B01F00F037F
:10089000DB0009064CBFDB199B1990421C602968DC
:1008A0005960F1D10CF1030CE645E5D10B222B6820
:1008B00016488DF8042001A9984704460028B0D0B6
:1008C00004F0F4F8ADE70324204603B0F0BD85281A
:1008D000C6D0FFF725FEC3E70B4B00200021C3E97C
:1008E00000011D72B7E700BF940100200C0000203A
:1008F00061060200ED000020F8000020F400002056
:1009000044010020FC000020E0000020D884020008
:1009100004F0D6B84FF0804303E0D3F83824D10771
:100920002CD5D3F838249207F7D530B583B01448C6
:1009300001A902F0D9FA0446F0B1124D28682060EE
:100940000020FFF747FE104B10481B880268013358
:100950009B1A0021E38002F067FA0346A38000207F
:10096000FFF740FE01A9064802F0F0FA084B1B68A9
:1009700001460BB12846984703B030BD704700BF11
:100980000C000020A88402008C01002090010020AF
:10099000E000002010B582B0822314488DF80030AA
:1009A00001A902F0A1FAF0B10446009820600020ED
:1009B000FFF710FE0E4B0F481B88026801339B1A8D
:1009C0000021E38002F030FA0346A3800020FFF705
:1009D00009FE01A9054802F0B9FA074B1B68014658
:1009E0000BB16846984702B010BD00BF0C00002054
:1009F0008C01002090010020E00000202DE9F04152
:100A0000077A82B0002F4BD000F1090E4FF0030897
:100A10002C4D2D4E18FB07E871464C78002294426D
:100A200001EB020315D091F802C013F80CC00CF0D2
:100A30000F031CF0800F4FEAC30308D12B441B683F
:100A40000132002BEBD0112002B0BDE8F08133441D
:100A5000F5E703318845E0D11A4D1B4E00249EF87E
:100A60000130BBB100229EF802300EEB02010132D0
:100A7000C95C01F00F03DB0009064CBF9B195B1931
:100A800018604168096859609EF80110D3B2994214
:100A9000E9D8077A0134E3B29F420EF1030EDED8A3
:100AA0000A4A13681BB11A681368002BFBD1106047
:100AB00043680B221B688DF8042001A9984702B0F7
:100AC000BDE8F081FC00002044010020F800002077
:100AD000024B1878003818BF01207047EC00002046
:100AE000030710B5044604D52046BDE8104004F0C5
:100AF00083BB04F003FE204604F0A6FD2046BDE8BB
:100B0000104004F079BB00BF04F0E2BB014B186851
:100B1000704700BFF800002010B50D4B86461868DE
:100B200078B1047A74B10346002202E00132A24295
:100B300008D093F809C0F44503F10303F6D101B1DD
:100B40000A7010BD036818680028EAD110BD00BF04
:100B5000F8000020436811461B68184700F00F0397
:100B6000082B0AD802064CBF054A064ADB0013448C
:100B7000186810B143681B6818471020704700BF01
:100B800044010020FC00002038B5094B1C6864B10A
:100B9000054602E023681C683CB1636829461B686F
:100BA000204698470628F5D038BD062038BD00BF3E
:100BB000F800002038B504460D4604F00DFB18B1CE
:100BC000054B1B78022B01D0082038BD2946204652
:100BD000BDE8384004F040BCED00002038B50446C4
:100BE0000D4604F0F9FA18B1054B1B78022B01D021
:100BF000082038BD29462046BDE8384004F0C4BC72
:100C0000ED000020F8B543689B6805460E46144683
:100C10001BB19847062800D0F8BD34BB2B7AB342ED
:100C200028D9093506EB46010D446B78DBB11F4628
:100C300005E0013404F0E0FAA74214D06B78E2B288
:100C4000934214D9AB782A19D65C33073046F0D4D6
:100C500004F054FD304604F0F7FC0134304604F053
:100C6000CBFABC42EAD10020F8BD0720F8BD002332
:100C70001B78FFDE6378FFDE43681B6903B118470A
:100C8000184670472DE9F0472B4BD3F80090B9F187
:100C9000000F48D099F808A0BAF1000F3CD009F134
:100CA0000906002704E00137574506F1030633D053
:100CB000D9F804309B68FCB22BB10022214648468B
:100CC00098470628EFD199F80830A3422DD97378B8
:100CD000002BE8D09846002405E0013404F08CFA9B
:100CE000A045E0D07378E2B29A4221D2B3783219AB
:100CF000D55C2B072846F0D404F000FD284604F00C
:100D0000A3FC0134284604F077FAA045EAD1013764
:100D1000574506F10306CBD1D9F80030D3F800903F
:100D2000B9F1000FB6D1BDE8F08700235B78FFDE94
:100D300000231B78FFDE00BFF80000202DE9F843F8
:100D4000204BD3F80080B8F1000F35D098F8089008
:100D5000B9F1000F29D008F109050027D8F80430AF
:100D6000DB68FCB213B121464046984798F808303A
:100D7000A34223D96B789BB10024E2B293421E4672
:100D80000BD92A19AB780134D05C04F0A1FAA64241
:100D900006D06B78E2B29342F3D800231B78FFDED3
:100DA00001374F4505F10305D8D1D8F80030D3F805
:100DB0000080B8F1000FC9D1BDE8F88300235B784B
:100DC000FFDE00BFF800002070B503780446852BD5
:100DD00000F2BD80DFE813F04F02A201BC00CD019C
:100DE000F401DF00E600BB00FE0011012401BB009E
:100DF000BB00BB00BB003701BB00BB00BB00BB009E
:100E0000BB00BB00BB00BB00BB00BB00BB00BB000A
:100E1000BB00BB00BB00BB00BB00BB00BB00BB00FA
:100E2000BB00BB00BB00BB00BB00BB00BB00BB00EA
:100E3000BB00BB00BB00BB00BB00BB00BB00BB00DA
:100E4000BB00BB00BB00BB00BB00BB00BB00BB00CA
:100E5000BB00BB00BB00BB00BB00BB00BB00BB00BA
:100E6000BB00BB00BB00BB00BB00BB00BB00BB00AA
:100E7000BB00BB00BB00BB00BB00BB00BB00BB009A
:100E8000BB00BB00BB00BB00BB00BB00BB00BB008A
:100E9000BB00BB00BB00BB00BB00BB00BB00BB007A
:100EA000BB00BB00BB00BB00BB00BB00BB00BB006A
:100EB000BB00BB00BB00BB00BB00BB00BB00BB005A
:100EC000BB00BB00BB00BB00BB00BB00BB00BB004A
:100ED000BB00BB00BB00BB004B0186005A013302C4
:100EE0001C02DF00854B8649D3E900029047854B01
:100EF0001C684CB1824D636820461B6829469847A0
:100F000023681C68002CF6D17F4C63680BB10D2060
:100F10009847FFF713FF01F0FBFB7C4B1B68002B8E
:100F200000F0CB8101207A4D03F0EAFE2B78022BF2
:100F300002D0053B032B08D802F0E2FA2B78022BF3
:100F400001D0082B01D104F01DF901232B7070BDD5
:100F50006F4D2B78022B02D0053B032B08D802F0F3
:100F6000CFFA2B78022B01D0082B01D104F00AF91B
:100F7000654B5B6803222A700BB102209847614BD6
:100F80001D6845B16B6828461B68214698472B6849
:100F90001D68002DF6D1594B2146D3E90002BDE86A
:100FA000704010478278110602F00F034CBF594A77
:100FB000524ADB001344D3E900022146904700283F
:100FC000C5D0A0780207C2D00307C0D4BDE87040E6
:100FD00004F02EBB4C4B5B680BB108209847494B83
:100FE0001D68002DB3D06B6828461B6821469847C2
:100FF0002B681D68002DF6D1A9E7434B5B680BB148
:10100000092098473F4B1D68002DA0D06B682846EB
:101010001B68214698472B681D68002DF6D196E77E
:10102000394B5B680BB10A209847364B1D68002D81
:101030008DD06B6828461B68214698472B681D6831
:10104000002DF6D183E7304B5B680BB10F2098473A
:101050002C4B1D68002D3FF47AAF6B6828461B6847
:10106000214698472B681D68002DF6D16FE7284C64
:101070002378062B00F0238103F0FD03052B7FF47A
:1010800066AF04F089F80223237070BD204DFFF78E
:1010900055FE03F05DFE2B78022B02D0053B032B9F
:1010A00008D802F02DFA2B78022B01D0082B01D1A1
:1010B00004F068F8134A146800232B704CB1164EE4
:1010C000636820461B683146984723681C68002CDB
:1010D000F6D10A4B1049D3E9000290470A4B5B68EE
:1010E0000BB10E2098472B78022B03D0053B032B26
:1010F0003FF62DAFBDE8704002F002BAFC000020C0
:10110000A4840200F8000020E0000020F400002089
:10111000ED00002044010020A08402008C4DFFF768
:101120000DFE01F0EBFA2B78022B07D05A1F032A91
:1011300000F2E480082B01D004F02EF8854B5B68A8
:1011400002222A700BB101209847834B2146D3E934
:1011500000029047814B1D68002D3FF4F8AE6B688C
:1011600028461B68214698472B681D68002DF6D13C
:10117000EDE6774D2B78082B00F09780022B00F0DE
:10118000CE80053B022B00F2C18005232B70714BF2
:101190005B680BB1032098476F4B2146D3E90002EF
:1011A00090476E4B1D68002D3FF4D1AE6B6828460A
:1011B0001B68214698472B681D68002DF6D170BD2D
:1011C000644B5B680BB103209847634B6449D3E9D8
:1011D00000029047614B1C684CB1614D636820462A
:1011E0001B682946984723681C68002CF6D1584D87
:1011F0002B78062B5ED0082B07D0022B05D0053BA1
:10120000032B00F28F8003F0C7FF02232B7070BD09
:101210004F4D2B78032B5BD003F07AFF00283FF46F
:1012200096AE2B78022B00F08F805A1F032A00F213
:101230008480082B00F0888006232B7070BD444DFD
:101240002B78032B7FF483AE03F076FE00283FF467
:101250007EAE2B78022B02D0053B032B08D802F080
:101260004FF92B78022B01D0082B01D103F08AFF14
:1012700004232B7070BD364B1B78032B24D0082B16
:1012800022D0344B5B680BB100209847354B1D686A
:10129000002D3FF45CAE6B6828461B6821469847DA
:1012A0002B685D68002DF6D170BD02232B7003F012
:1012B0007DFF6CE707232B7070BD207A33E603F0C7
:1012C0006BFF0823237070BD2748FFF77DFDD8E72B
:1012D00003F032FE00289FD02B78022B02D0053B72
:1012E000032B08D802F00CF92B78022B01D0082B25
:1012F00001D103F047FF04232B708DE71B4802F058
:10130000C9F82B78022B7FF415AF17E7174802F0C6
:10131000C1F82B78022B02D0082B7FF436AF03F0F4
:1013200031FF32E7114802F0B5F82B78022B3FF479
:101330006CAF082B3FF469AF65E70C4802F0AAF8E0
:101340002B78022B7FF475AF03F01CFF74E700BF0E
:10135000ED000020E0000020FC000020F80000204C
:1013600098840200F40000209C8402000400002005
:1013700070B5264E82B0346800230193FCB1A58875
:10138000A5B1E388B3F5006F3ABF5A1C92B20122AF
:1013900005F1FF3528BF0023E280A58001A8ADF844
:1013A0000630FFF711FD012002B070BD2046FFF7A7
:1013B0000BFD1749174801F00BFE3560F3E71449A0
:1013C000144801F0D3FD044630600028D7D1124BF9
:1013D0001B6813B9184602B070BDFFF7FBF80F4A3F
:1013E0000D481388B3F5006F39BF5D1CADB2012500
:1013F000234601211580ADF8063001F037FD0020AD
:10140000FFF7F0F801A8FFF7DFFCCCE7DC000020D5
:10141000D80000200C000020900100208C0100204A
:10142000F0B58446006891F808E0002800F01485C3
:10143000A0F213307C2800F281807C287ED8DFE87F
:1014400010F09E0011039B01FD03F400EC00C302A9
:10145000A3017D007D007D007D007D007D00720484
:1014600073017D007D007D007D001D0460012F0162
:101470007D007D007D008604FC001C017D007D0058
:101480007D007D000A044F013F037D007D007D004B
:101490007D007D007D00AE027D007D007D007D0031
:1014A00042047103E702CB0255037D007D00B301C6
:1014B0000103F9024D0396027D007D00BB02B302D9
:1014C0006503A6027D007D00ED030903F5039E027E
:1014D0005D037D007D007D007D007D007D007D0041
:1014E0007D007D007D007D007D007D007D007D0014
:1014F0007D007D007D007D0061043D027D007D005A
:101500007D0005047D007D007D007D0030047D00B0
:101510007D007D007D0020047D007D007D007D003C
:101520007D007D005E048E027D007D007D007D00DB
:1015300082007D007D007D007D0082000023184632
:10154000CCF80030F0BD0124002012B19CF804500A
:101550001554914E9148057830780130C0B2307002
:10156000854200F212848E4D28780130C0B2864543
:10157000287000F2198440F29A330120E0E7002A33
:1015800000F038859CF804001070012B4FF00B0020
:101590008CF8040040F25D850546561C03240220A9
:1015A00035700D7D8CF80450834240F2DE84104487
:1015B0000570A3424FF002008CF8040040F2BC8496
:1015C000151901342870A3424FF002008CF8040072
:1015D00040F29E84151901342870A3424FF0020096
:1015E0008CF8040040F27D84151901342870487E7F
:1015F0008CF80400A34240F262841519013428706B
:10160000A3424FF000008CF8040040F24E841519FC
:1016100001342870624D0020A9E7002A00F05385AC
:101620009CF8040015460124E0E7002A00F03A8502
:101630009CF8040015460124CEE7002A40F00485FA
:101640000124487E8CF804009C4280F09983013488
:101650000020A3428CF8040040F23C825148056807
:1016600001340E7D2878864200F096834B486D78D1
:10167000494E05700020307072E70124002AE7D03F
:101680009CF8044015460120002683422C708CF8FB
:10169000046040F21F82434C16542568441CE0E766
:1016A00040480568002A00F004859CF8044016466E
:1016B000012034702C780E7DA64200F00A848E7DC5
:1016C000A64200F07D84002483428CF8044040F25E
:1016D0000182441C002AC4D09CF804601654C0E760
:1016E000002A00F0A6849CF804501646012000242D
:1016F000834235708CF8044040F24F841518013055
:10170000C2E7002A00F0C5849CF804401546012079
:101710002C70244C256883426C788CF8044040F28D
:10172000F28316180130C4E7002A40F0B6847546EB
:1017300001241B480078A84280F0F88400EB4000A8
:1017400001F10905174F2E5C8CF804600544A34293
:101750003D6040F22784601C002A00F0F7839CF86B
:101760000450155583424FF000048CF8044040F2B9
:10177000D98315180130CBE7002A00F062849CF869
:1017800004501046012413E7002A00F0A4849CF8BA
:101790000400154601243CE79C0200209D02002025
:1017A000A4020020A0020020002A00F08E849CF8F1
:1017B0000440154601202C7083424FF024048CF81D
:1017C000044040F27783151801302C7083424FF0AB
:1017D00001048CF8044040F26383151801302C702A
:1017E00083424FF003048CF8044040F254831518F0
:1017F00001302C708C7D8CF80440984280F0468338
:10180000151801302C7098424FF004048CF80440F5
:1018100080F03283151801302C7098424FF0240468
:101820008CF8044080F02383151801302C70984206
:101830004FF002048CF8044080F023831518013027
:101840002C7098424FF002048CF8044080F0FF8224
:10185000151801302C7098424FF005048CF80440A4
:1018600080F0F082151801302C7098424FF024045B
:101870008CF8044080F0E182151801302C709842F9
:101880004FF006048CF8044080F0D2821518013025
:101890002C700C7D8CF80440984280F0C48215189E
:1018A00001302C708D7D8CF80450984280F0B68207
:1018B0001618441C357099480568D7E6002A00F0D0
:1018C00032849CF80440154601202C70934C944DB2
:1018D00024682D786678AE4240F22D84A67825449F
:1018E0009842AD5D8CF8045080F02183451C12B104
:1018F0009CF80460165420780C7D844200F08582A8
:101900008C7D844200F03B834020AB428CF8040085
:1019100040F2D5816C1C002A00F066829CF804001D
:101920005055A3424FF000008CF8040040F244826E
:1019300015190134287079480D7D006800788542BA
:1019400000F03F828D7D85427FF403AE0020A342EC
:101950008CF8040040F2988320460134F5E5002A13
:1019600000F08E839CF8040015460124E2E7002A6B
:1019700000F0B8839CF804401546012042E7002A95
:1019800000F0B6839CF804401546012089E7002A40
:1019900000F0BB839CF80440154601205AE75F48DD
:1019A00001240568002095E6002A00F09F839CF83A
:1019B00004401546012039E7002A00F095839CF881
:1019C00004401546012027E7002A00F080839CF898
:1019D00004001546012412E6002A00F05C839CF8FE
:1019E0000440154601202C7083424FF001048CF80E
:1019F000044040F27B82151801302C7083424FF076
:101A000005048CF8044040F25F8215180130D2E6DC
:101A1000002A00F033839CF80440154601202C7006
:101A200083424FF010048CF8044040F2768215187F
:101A30000130D8E7002A00F051839CF80440154695
:101A40000120CCE6002A00F044839CF804401546AF
:101A50000120BAE6002A00F050839CF804401546A5
:101A600001200BE7002A40F05283087D8CF8040027
:101A7000012B40F27A820320022402259C428CF83A
:101A8000045080F05982022498428CF8044080F07F
:101A90003F82441C02209C428CF8040080F021828A
:101AA0000134487E8CF804009C4280F008820134A6
:101AB00000209C428CF8040080F0F7810134A9E5F5
:101AC000002A7FF4DDAD012400209C428CF8040044
:101AD000FFF4C4AD40F23D33012031E5002A00F0AF
:101AE000FF829CF804401546012082E6002A00F09F
:101AF000E8829CF80440154601207EE7002A00F0A9
:101B0000F9829CF8045016460124D3E6002A00F01E
:101B1000F8829CF804401546012091E6A0020020BE
:101B20009C0200200120002A40F0F8820024834219
:101B30008CF8044040F205820130102483428CF876
:101B4000044040F2EA810130012483428CF80440D1
:101B500040F2CC810130052483428CF8044040F2ED
:101B6000B3810130242483428CF8044040F2A281E6
:101B70000130012483428CF8044040F2918101300D
:101B8000032483428CF8044040F2858101308C7D2F
:101B90008CF80440834240F279810130042483426E
:101BA0008CF8044040F268810130242483428CF890
:101BB000044040F25C810130022483428CF80440EE
:101BC00040F25F810130022483428CF8044040F2ED
:101BD0003E810130052483428CF8044040F232817A
:101BE0000130242483428CF8044040F226810130E5
:101BF000062483428CF8044040F21A8101300C7DA7
:101C00008CF80440834240F20E8101308C7D8CF8C8
:101C10000440834240F20281441C4CE6002A00F05A
:101C200072829CF80440154601201DE6002A00F04F
:101C300066829CF804401546012029E6002A00F03F
:101C400021829CF8040015460124BBE4DB480125F1
:101C5000046800204BE601240020002A00F0FE81E9
:101C60009CF804501554A3424FF000008CF8040077
:101C700040F2DA8105461619601C38E5012000247F
:101C80006AE501250024002A00F0A7809CF80400E2
:101C90001055AB424FF040008CF804000FD96C1C7B
:101CA0003EE601250020002A00F097809CF80440C1
:101CB0001454AB424FF040008CF80400EFD84FF4BE
:101CC000617301203CE401200024002A00F06F81B0
:101CD0009CF80450155583424FF024048CF80440BE
:101CE00040F24881151801302C7083424FF00004F7
:101CF0008CF8044040F22581151801308FE601244C
:101D0000002508E601200024002A00F0F4809CF859
:101D10000450155598424FF005048CF804406FD2DA
:101D200015180130D1E501250024002A00F04F816B
:101D30009CF804001055AB424FF004008CF80400EE
:101D400040F2268156196C1C30700D7AF1E40124A2
:101D50000020002A00F060819CF8045015549C4239
:101D60004FF002008CF8040080F03F810546161900
:101D7000601C35704C7E8CF8044083423FF6BEAC4C
:101D800040F22F330120FFF7DBBB0720A3428CF882
:101D9000040030D9601CB7E70520A3428CF804008A
:101DA00040F21E81601C90E70920A3428CF80400D9
:101DB00040F22D81651CB8E740F285330120FFF722
:101DC000BFBB086AA34200788CF804003FF6C4AD9C
:101DD00040F28A330120FFF7B3BB4020AB428CF8BE
:101DE00004007FF66CAF6C1C0020A3428CF804004A
:101DF000E2D901349FE540F26E330120FFF7A0BB2A
:101E000040F26F330120FFF79BBB0320AB428CF8FD
:101E1000040040F229812846013544E740F25A3354
:101E20000120FFF78DBB40F259330120FFF788BB3B
:101E30004FF456730120FFF783BB40F25733012064
:101E4000FFF77EBB40F256330120FFF779BB40F22B
:101E500053330120FFF774BB08208CF80400002BDB
:101E60007FF48DAB40F213330120FFF769BB40F2E2
:101E700051330120FFF764BB4FF454730120FFF787
:101E80005FBB40F252330120FFF75ABB40F24D33A3
:101E90000120FFF755BB4FF453730120FFF750BBF0
:101EA00040F24B330120FFF74BBB40F21A330120C5
:101EB000FFF746BB40F24A330120FFF741BB40F237
:101EC00019330120FFF73CBB40F249330120FFF7F3
:101ED00037BB022483428CF8044040F2CA80441C81
:101EE00037E74FF446730120FFF72ABB40F2463331
:101EF0000120FFF725BB052498428CF80440BFF46D
:101F00007FAF0130E2E440F229330120FFF718BB34
:101F100040F217330120FFF713BB40F24533012095
:101F2000FFF70EBB4FF44A730120FFF709BB40F2E5
:101F300073330120FFF704BB40F216330120FFF793
:101F4000FFBA4FF451730120FFF7FABA83428CF8BD
:101F50000420E7D90130194C256883426C788CF84D
:101F60000440D0D90130FFF7A5BB40F21533012062
:101F7000FFF7E6BA40F243330120FFF7E1BA02204F
:101F8000AB428CF8040040F28F802C4601357AE693
:101F900040F222330120FFF7D3BA40F2363301205A
:101FA000FFF7CEBA40F227330120FFF7C9BA242445
:101FB00083428CF80440DDD90130B7E5A00200204F
:101FC0000A2483428CF8044076D9441C45E6042058
:101FD000AB428CF80400DBD96C1C0D7AFFF7A9BB6F
:101FE00040F242330120FFF7ABBA40F22E3301201A
:101FF000FFF7A6BA0B20012B8CF8040029D9087D25
:102000008CF80400022BB0D00420032435E540F204
:1020100021330120FFF794BA02209C428CF804007F
:10202000E3D20134FFF70DBB40F235330120FFF757
:1020300087BA01240020A3428CF80400ADD90134F2
:1020400042E50220012418E59CF8045016460120C0
:102050008FE64FF445730120FFF772BAA3428CF864
:102060000420E1D90134E5E74FF45E730120FFF766
:1020700067BA40F22D330120FFF762BA01205CE518
:10208000012458E40120FEE440F28F330120FFF7E1
:1020900057BA01205FE7012056E59CF80400164678
:1020A000012451E60124F5E440F27D330120FFF7DD
:1020B00047BA0120FFF7FEBA4FF44D730120FFF736
:1020C0003FBA012047E50124EBE401204AE5012461
:1020D000EEE401204DE50124FFF79CBA01204FE515
:1020E000012054E5012059E501205EE5012063E56A
:1020F00001208BE50124FFF7DEBB012078E50120FC
:102100007DE501205FE501206BE5012062E59CF89B
:102110000450164602240120FFF742BA9CF80440FE
:1021200015460120E0E50120FFF7D0BB034A00235C
:1021300013601B78FFDE00231B78FFDEA002002067
:1021400078B910B504460868037B202B01D006201F
:1021500010BD00F10E010722183005F0CFFC20461B
:1021600010BD0320704700BF2DE9F0470B7888B001
:102170000C4605460E2B70D8DFE803F0180C181833
:102180006F681D6F6F086F1818181800C3690BB1BE
:10219000032198472B680022C3E91E22C3E92022AD
:1021A00003F134011A845A62DA6259670024204626
:1021B00008B0BDE8F087027A002A00F05781837AE0
:1021C0000930002B00F04F818B78E97A415C99420D
:1021D000ECD01B06E67856D406F0FD03012BE5D0C3
:1021E000002E53D12C68012A04F10C0300F03E812B
:1021F0006A7B012A40F2378106939E4AAB7B0592A7
:102200002B44A76A93F80D80002F40F0A680E36F5F
:10221000C4F88030E36AC4E91E77002B00F099808F
:1022200004F12C0393E8030004F1240383E8030082
:102230000023E36205A94046FEF7D0FC0446EB69A3
:10224000002BB4D0002128469847B0E74B78D90935
:102250004FEA531203D1012A3FD00624A7E712F018
:10226000030215D0012AF8D1A378212BF5D1B4F8B7
:102270000720072AF1D10168601C183108B0BDE8B9
:10228000F04700F04FBA06B3032E8FD003248EE739
:1022900003F01F03012BE0D1A378062BDDD105A8A5
:1022A000039200F077FD03ABE278009321790346B7
:1022B00006462846FEF744FA0528CED0601C039A4D
:1022C000314600F02FFA044671E7EB69002B3FF42A
:1022D0006DAF01212846984768E7A3780668202B50
:1022E0001AD0222BB9D1B4F80730002BB5D1B4F8ED
:1022F0000330328C338403F0010102F001028A4280
:102300003FF454AFC369002900F08280002B3FF4F2
:102310004DAF0221984749E7B4F80720072A9CD11E
:102320003373B4F807300024DBB2737320460E36E3
:10233000CDE905630794FEF74DF9204605A9FEF7A0
:1023400039FC0446002800F086800020FEF74AF998
:102350002DE700236362002471E7D4F884A0606A4B
:10236000574528BF574604F134093A46494605F017
:10237000C5FB09EB0702AAEB0703C4E91D23E26FC3
:10238000E6673A44C4F88020E26A002AE1D004F10A
:102390002C0797E8030004F124064FF0000986E8B3
:1023A0000300C4F82C90DBB92CE005F0A7FBA26A6F
:1023B000A36FC4F880209B1AA367636F13446367FD
:1023C000EB6913B1002128469847E36A002BC1D07E
:1023D00097E8030086E80300A36FC4F82C908BB144
:1023E000D4E909029A42616FDFD91A4605F086FBEB
:1023F000A26FA36AE2679B1AA362636A13446362D3
:10240000002BA8D005A94046FEF7E8FB044616E7D6
:102410000BB1032198472B7A012B27D96B7B1BB378
:10242000AB7B2B44187B02F0A9F92B7A012B1DD929
:102430006B7B012B17D9AB7B2B44587B02F09EF9A9
:10244000002306F13402C6E91E33C6E92033736265
:10245000F3627267AAE6084B03A9CDE9033500F0E1
:1024600085FC044671E700231B78FFDE00235B78C0
:10247000FFDE00BF7D240200412102004360CA69E3
:102480009A4210D38A6910B40260C8690C6FC01AEE
:102490001A44C8612344003818BF01205DF8044B7A
:1024A0008A610B67704701F12802026000208B6788
:1024B000704700BF0368B3F820C01CF0010F16D0AE
:1024C0000B46017A012916D9417B91B110B5817B68
:1024D000084484B091060CBF0124002401A9007BAC
:1024E0000394CDE90132FEF765FB04B010BD08206E
:1024F00070470B78FFDE00235B78FFDEF0B50468E1
:10250000238CDB0783B033D5656A16462DB1E36AA9
:10251000002B30D0112003B0F0BDA76F97422FD20F
:10252000C4E90912037A012B38D9437B012B37D92F
:10253000837B03445E7B1B4B009304F10C030193EC
:102540006FB13A460846616F05F0D8FAA26FA36AE8
:10255000E2679B1AA362636AA567134463626946D4
:102560003046FEF73BFB002808BF922003B0F0BDC9
:10257000082003B0F0BD9220C4E90B1203B0F0BDF7
:102580000846616F05F0BAFAD4E91D32921B334454
:10259000C4E91D32C4F880602846BCE76B78FFDED2
:1025A0002B78FFDE7D240200002070472DE9F04FDC
:1025B00087B04B6802900C461546002B00F08C80CB
:1025C00003F032F8E368AB4228BF2B4681461E4633
:1025D000002B00F08F804FF0000B5F464FF0010A98
:1025E000D84601900395D4E90115B542A94628BF04
:1025F000B1463846A6EB09064F44F1B1019B4A4665
:10260000184405F07BFAA268E168C4F80480A2EBE4
:102610000902A1EB0903A260E3602AB3002B08BF03
:102620004FF0000A002EDED1DDF80490029B5046E8
:10263000C3E9009707B0BDE8F08FA5B1019B1A1858
:1026400020464B4650F8101B4D686D68A847A2689D
:10265000E168A2EB0902A1EB0903A260E360EAB121
:102660004FF0010BDAE7E368BBF1000F16D1002B46
:1026700028D02168D9B1CDF8108003E0A368216883
:102680000133A3604A680123556804A80022A847C3
:102690000028F3D12061002EA5D1C5E72268126879
:1026A0001168216093B14FF0010B0029E3D1DDF8EF
:1026B0000490039D6160002FB8D0BD4288BF4FF0E9
:1026C000000AB3E7DA46002E8DD1ADE79A464FF007
:1026D000010B002E87D1A7E70B681B68D3F8009089
:1026E000B9F1000F7FF46CAF8F68002F7FF468AFF3
:1026F000BA469BE71F464FF0010A97E708B500204E
:10270000FEF7EEF9BDE808408020FEF7E9B900BF0A
:1027100008B50020FEF7F8F9BDE808408020FEF774
:10272000F3B900BF70B5C38893421E4628BF164652
:10273000934284B00D4612D8002400200394CDE9C2
:102740000156FDF747FF802001A9FEF733FA044642
:1027500088B10020FDF746FF204604B070BD802000
:10276000144602F029FDB4FBF0F303FB1044B4FA65
:1027700084F46409E1E703F015F880280BD1094AD5
:10278000094B92E8030083E803000020FDF72AFFCD
:10279000204604B070BD0020FDF724FF1024204621
:1027A00004B070BDD0840200CC0200202DE9F04FAF
:1027B0000B780E2B87B000F285805BB3013B0D2BAD
:1027C00028D8DFE803F019142927364D27272727B3
:1027D00014076471AC4B1A784AB1AC4900240A78EA
:1027E000AB481C7022F002020A70FEF7EDFA0025D9
:1027F000284607B0BDE8F08FA34B1A78032A09D00A
:10280000A24903240A78A2481C7022F002020A702E
:10281000FEF7DAFA0625EBE79E4800F041FB0028B8
:10282000E5D09D4B0122DA65BFF36F8FBFF34F8F69
:10283000DDE705230DF101008DF80030974C02F023
:102840006DFF9DF801300022226003F01F02032A71
:1028500000F22881DFE812F0F200C4007F00770068
:10286000C87803280C46D5D08C4E33681BB30022A1
:102870007168326098470546F0B93368002B00F064
:102880001381A378002BB2D102F06EFFAFE74FF0B7
:1028900080427D4BD2F838141A78C9071BD5022A1A
:1028A000A5D07A4902249AE7774B1A78012A9ED05C
:1028B0007649012493E70E2502F06AFF284607B007
:1028C000BDE8F08F852BA5D16F4B1A78032AA1D1D3
:1028D0006E49042496E7012AEAD188E7062900F028
:1028E000A381082900F0808169BB6D4D0222284632
:1028F00005F0D8F8654A2B781278920743F0010169
:1029000048BF43F00303297048BF2B70BDF8073060
:10291000022B1E4628BF0226022B00F2E481002370
:102920000020CDE903560593FDF754FE802003A94E
:10293000FEF740F90546002800F048810020FDF729
:1029400051FE062DB8D16846FEF71EF90546002D4A
:1029500000F09280B0E79DF80500050707D06946B2
:10296000FEF7FCF806280546F1D19DF8013013F07A
:10297000600F40F097809DF80230434A9DF8055063
:102980001278012B00F0A880032B00F09780002B19
:1029900040F08880052A02D0290740F08D80284623
:1029A00002F08AFEBDF807303D4D022B1E4628BFBF
:1029B0000226022B288000F2558100230020CDE959
:1029C00003560593FDF706FE802003A9FEF7F2F8F3
:1029D0000546002800F0FA800020FDF703FE6BE7B3
:1029E0009DF8050003A9FEF797F80746002861D077
:1029F0009DF80C106A46FEF7ADF806280546A6D1EC
:102A00009DF8013013F0600F4CD11F4A9DF80C1057
:102A100012789DF80260DD0940F030810B2E41D123
:102A2000052A49D1BDF80330FF2B73D89DF8032048
:102A30003846FEF7E7F80546F5B13DE713F06006C6
:102A400081D1DB099DF802107FF448AF032963D0E0
:102A5000092952D001297FF476AFBDF80330012B4C
:102A60007FF471AFFEF734F8002800F0F980074AD0
:102A7000137823F0020313702368ABB102F092FEC7
:102A800000287FF4B4AEFFE61903002018030020ED
:102A9000C48402001403002000700240CC02002015
:102AA000D4020020062507E702F068FE9FE62846CC
:102AB000FDF798FD1025FFE60825FDE62B07F1D46C
:102AC000BDF80330002BEDD12F07EBD0052AF3D151
:102AD000284602F0ADFDCFE72E07E3D4BDF8033062
:102AE000002BDFD12807DDD0052AE5D1284602F0EA
:102AF00005FE284602F0A8FDBEE7934D9DF8032091
:102B00002B78043B012BD7D8002A00F0DB80012A68
:102B100000F0CC800725CFE6BDF80330012B7FF411
:102B200012AFFDF7D5FF002800F09A80874A13788E
:102B300043F0020313709FE7BDF80730002BB3D0BA
:102B4000092B28BF09239846FDF7E0FF4FF009093C
:102B50000546B8B1B346CDF80CB0002700E0013708
:102B60006A680123D2F804A02946002203A8D047AE
:102B70000028F4D12A682B7A15683344B944DEB2B0
:102B8000002DE8D1724D73494246284604F0B6FF45
:102B90002E71A5F80290FDF79BFF18B1EB7943F079
:102BA0002003EB71FDF7B2FF6B4B1860BDF80720F7
:102BB000DA600020C3E90158FDF70CFD6749802069
:102BC000FEF70CF8054600287FF4B8AE02F0EAFDE7
:102BD00080287FF46CAF624B93E8030084E8030025
:102BE0002846FDF7FFFC47E7574A1278052A03D02D
:102BF000042A7FF4A8AE3346BDF80720544D012ABD
:102C0000164628BF0126012A2B707FF688AE802049
:102C100002F0D2FA0123B3FBF0F300FB03F3C3F19C
:102C2000010383F001037BE69DF80430022B83D07F
:102C3000032B64D0012B7FF486AEBDF80730002B48
:102C40003FF432AF474912220DF10100FFF76AFD50
:102C50000546062D3FF477AE002D3FF40DAF2BE671
:102C60000F2529E6802002F0A7FA0223B3FBF0F338
:102C700000FB03F39A1E534253419FE6002E54D0AB
:102C80000A2E7FF40FAF052A7FF416AF3846FDF702
:102C9000F3FF2F4903462A460DF101000B70FFF7A1
:102CA00041FD0546002D3FF4E7AE05E6FDF7EAFFDE
:102CB0002B78052B3FF4E0AE05232B482B70FEF755
:102CC00083F8D9E6FEF73AF82B78042B3FF4D4AE1C
:102CD0001E4A25481378042123F00203297013703B
:102CE000FEF772F8C8E6802002F066FA0223B3FB12
:102CF000F0F300FB03F39F1E7B427B4110E6BDF81F
:102D00000730002B3FF4D0AEBDF805109DF803004E
:102D100000F048F8014600283FF415AE02780DF1A6
:102D20000100FFF7FFFC054693E7052A7FF4C4AED8
:102D3000074902220DF101000E80FFF7F3FC054662
:102D4000002D3FF499AEB7E51903002018030020C9
:102D5000D4020020FC840200A8020020C8840200E3
:102D6000D084020008850200C484020038B50546FC
:102D70000C4602F017FDA84207D194E80300044A6C
:102D800082E803000023184638BD1023184638BDDA
:102D9000CC02002008B1402303600148704700BF07
:102DA000D402002090B3012809D0022807D00328BC
:102DB00005D0042803D0052801D000207047174B08
:102DC00003EB4003587828B3154B10B553F8204057
:102DD000F4B123780BB9A01C10BD0020FFF7DAFF77
:102DE0002178C1B12246C4F1010C02EB0C03DCB224
:102DF000234620F8141012F8011F0029F5D10133E1
:102E00005B00DBB243F44073038010BD054870479C
:102E1000204610BD704740F20233F5E78885020076
:102E20001C85020082850200034653E8000F0A4613
:102E300043E8002C9CF0000FF7D17047034653E89D
:102E4000002F02EB010043E8000C9CF0000FF6D1CC
:102E5000704700BF034653E8002FA2EB010043E890
:102E6000000C9CF0000FF6D1704700BF034653E8FA
:102E7000002F8A422CBF501A104643E8000C9CF0E9
:102E8000000FF4D1704700BF0346012253E8001F32
:102E900041EA020043E8000C9CF0000FF6D17047B5
:102EA0000346002253E8000F00EA020143E8001C39
:102EB0009CF0000FF6D1704799B110B4B2FBF3F457
:102EC00003FB1424A4B244B9C0E9001484608281D5
:102ED000C38120465DF8044B704709205DF8044B20
:102EE00070470E20704700BF10B483B050E8013F18
:102EF0001FFA83FCC489A4448489A44528BFACEB91
:102F0000040C0489A44502BFBFF32F8F002207E001
:102F1000CCEA030C40E801C4002CE7D14FF00102D9
:102F20008DF803200193019C9DF803200C6032B1C1
:102F3000006810FA84F003B05DF8044B704702F0AB
:102F4000FF03184603B05DF8044B70470A884B88AE
:102F50009A4201D00020704750E8012FC2EA024295
:102F600040E80123002BF7D10120704710B483B053
:102F700050E8023F1FFAA3FCC488A44502BFBFF378
:102F80002F8F00220EE0C489A4448489A44528BF61
:102F9000ACEB040CC3EA0C4C40E802C4002CE7D1B3
:102FA0004FF001028DF803200193019C9DF803204E
:102FB0000C6032B1006800EB144003B05DF8044BC4
:102FC000704702F0FF03184603B05DF8044B7047EA
:102FD0000A884B889A4201D00020704750E8022F9F
:102FE000C2EA224240E80223002BF7D101207047B9
:102FF00038B504460020FDF7EDFAD4E900311A682F
:103000008A4215D9511E19602168A36812F8012C53
:10301000208B0D68E4685B1B00FB02440A79DBB27D
:103020009A4200D20B710020FDF7DCFA204638BD31
:1030300000240020FDF7D6FA204638BD38B50546F5
:1030400000200C46FDF7C6FA2A681368591C116067
:10305000E9682A8B641AB4FBF2F41C70BDE83840AE
:103060000020FDF7BFBA00BF2DE9F041078BCE1C51
:10307000043F3E440546B6FBF7F6FFF7B9FF0028CC
:1030800034D0F6B24FF48073013E04468380C7808B
:1030900005602CD003464FF0000807E062794645F2
:1030A00002F1010262713860056020D028461F4697
:1030B000FFF79EFF08F1010803460028EED167796B
:1030C0002668791E16D02246013399421268FBD138
:1030D000D2F8008057B1002501E034463668214619
:1030E00040460135FFF7AAFFAF42F6D8002420463C
:1030F000BDE8F08121463046FFF7A0FFF6E700BFAC
:1031000001210430FFF79ABE2DE9F0410121044668
:103110000430FFF79FFE10F0FF0301D0BDE8F081FF
:1031200067792668791E15D02246013399421268C4
:10313000FBD1D2F80080002FF0D0002501E034460A
:103140003668214640460135FFF778FFAF42F6D892
:10315000BDE8F08121463046BDE8F041FFF76EBF83
:103160002DE9F8438846C788417907FB01F1043906
:1031700002EB030C1E1D6145154638BFCD1AB74240
:103180000446B6FBF7F207FB126002D8013A246846
:10319000FCD13E1AAE4228BF2E469DB14FF0000929
:1031A0000430AD1B324608EB0901204404F0A6FCB4
:1031B000AF42B14424683E464FF0000028BF2E467F
:1031C000002DEDD1BDE8F883024A034B10681B685F
:1031D000184700BF2C030020340300201EF0040F0A
:1031E0001CBFEFF309800AE0EFF308800549064AA7
:1031F000884201D8904202D88D464FF00000034B20
:10320000184700000000042000E0032035320200CF
:10321000BFF34F8F0549064BCA6802F4E0621343BF
:10322000CB60BFF34F8F00BFFDE700BF00ED00E0B4
:103230000400FA052DE9F04F83B0814603F096F8BB
:1032400002F0A8FD0028FBD1454F464A464BDFF867
:1032500038819D6AB8F80230BF1AFF083F0447F072
:103260000107B9F1000F73D0002B41D13E4BDB6A4F
:10327000DFF818B1DFF818A10024012602E00134BC
:103280001A2C12D006FA04F32B42F8D05BF8242053
:10329000002AF4D0B8F80230002BF0D0514638465E
:1032A000013402F0A5FF1A2CECD12A060ED5B8F88D
:1032B00002302BB94846FFF7ABFF03B0BDE8F08FF3
:1032C000294B2A495A6B384602F092FF2B04F1D55C
:1032D000B8F80230002BEDD0234B25499A6B3846C5
:1032E00002F086FF4846FFF793FF03B0BDE8F08F7A
:1032F000D9F818201F49384602F07AFFB8F8023092
:10330000002BB3D0D9F80C300193D9F808300093D2
:10331000D9E900231849384602F07AFEB8F802309D
:10332000002BA3D0D9F81C300093D9E9042313490A
:10333000384602F0E9FE0C4BDB6A990798D5B8F8DD
:103340000230002B94D00E49384602F0B5FF8FE7CB
:10335000002B8BD00B49384602F0AEFFEBE700BFE5
:10336000B88802005888020000ED00E0C07C02002E
:10337000E07C0200C47B0200DC7B0200147C0200C3
:10338000707C02003C7C02006C00002094850200EE
:10339000B47C020010B568B90E4CA36801226270BB
:1033A0003BB1D3E900230020A2609847A368002B1B
:1033B000F7D110BD0128FCD1064C2369A070002B69
:1033C000F7D0D3E900230120226198472369002B1D
:1033D000F7D110BD3803002038B50C4C237843B129
:1033E00085250B4BD3F800340BB10123A37028467D
:1033F00038BD08486360A3602361E36000F0BAF859
:10340000054600F0C3F801232370EAE738030020E3
:10341000000001409533020038B5194DAB780446E1
:1034200073B110B14368012098470020FDF7D2F82E
:10343000EB680133EB60BDE838400020FDF7D2B8FF
:1034400003F0FF00FDF7C6F864B12A6942B1944267
:1034500008D0134601E09C4204D01B68002BFAD12F
:1034600022602C61EB683BB1EB680133EB60BDE897
:1034700038400020FDF7B6B800F09EF8F4E700BF32
:10348000380300204FF08043D3F81804C0F3004005
:10349000704700BF38B5194D6B78044673B110B151
:1034A0004368002098470020FDF794F86B680133CB
:1034B0006B60BDE838400020FDF794B803F0FF00D2
:1034C000FDF788F864B1AA6842B1944208D0134667
:1034D00001E09C4204D01B68002BFAD12260AC6052
:1034E0006B683BB16B6801336B60BDE8384000200E
:1034F000FDF778B800F072F8F4E700BF3803002059
:1035000038B50B4C0020FDF765F86368013B63603C
:10351000656825B1BDE838400020FDF763B800F0CC
:103520006DF86570BDE838400020FDF75BB800BF5E
:103530003803002010B5074C23784BB9064B002800
:1035400008BF184600F0AEF808B90123237010BD7B
:10355000852010BD4C030020FC850200034653E883
:10356000000F00EA010243E8002C9CF0000FF6D1A6
:10357000704700BF044A137923B90121106091807C
:10358000184670478520704750030020084B1A6882
:10359000D20704D4C02283F8002301221A60054A0E
:1035A0004FF080410123C1F818351370704700BFF8
:1035B00000E100E04D0300204FF080430022C3F8FB
:1035C000042182B0D3F80421019201980221012242
:1035D000C3F804139A6002B0704700BF4FF08043F5
:1035E0000022C3F8002182B0D3F800210192019992
:1035F0000122C3F804231A6002B070474FF08042E2
:1036000001230021C2F8083382B0C2F80011D2F8B9
:103610000011019101995360D2F80C3403F00113A9
:10362000B3F1011FF8D0024B00225A7102B070476B
:103630005003002010B54FF0804382B0D3F8002132
:1036400062B10021164AC3F80011D3F80011507975
:1036500000910121009CC3F80813A8B14FF08043EA
:10366000D3F80421CAB10022C3F80421D3F80421FD
:10367000019202210A4A0198C3F808131368012035
:1036800002B0BDE8104018471368517198474FF0D9
:103690008043D3F80421002AE5D102B010BD00BF59
:1036A000500300200E4A1378C3B903780D494FF038
:1036B000804CC3F34003CCF88035037803F001035A
:1036C000CCF878350B68DB0704D4C02381F80033CD
:1036D00001230B6001231370002070478520704781
:1036E0006403002000E100E010B54FF0804386B095
:1036F000D3F80443620703D5D3F80821002A62D126
:10370000A30605D54FF08043D3F81421002A4FD1EA
:10371000600605D54FF08043D3F81821002A3BD12D
:10372000210604D54FF08043D3F81C214ABBE205A3
:1037300004D54FF08043D3F82021B2B9A30512D5A8
:103740004FF08043D3F824216AB10022C3F824212A
:10375000D3F82421214B0592059A1B68022006B05C
:10376000BDE81040184706B010BD0022C3F8202164
:103770001A4AD3F82031049301201368049A984719
:10378000DCE70020C3F81C01144AD3F81C31039372
:103790001368039A9847CAE70022C3F81821104A11
:1037A000D3F81831029301201368029A9847B7E7BB
:1037B0000020C3F814010A4AD3F8143101931368A6
:1037C000019A9847A4E70022C3F80821054AD3F8D4
:1037D000083100931368009A984791E75803002036
:1037E0005C0300206003002008B5FFF77DFFBDE803
:1037F0000840FFF71FBF00BF30B44C68A34208D990
:10380000002545600968016093420CD0002030BC5F
:10381000704743600D6805600868E41A18449342D5
:103820004C600860F2D1201E18BF012030BC7047E8
:1038300010B4D1E90034A24228BF2246C0E90032C8
:10384000D1E90030801A1344C1E90030003818BFB4
:1038500001205DF8044B70474B689A4228BF1A4616
:1038600062B10B68C0E90032D1E90030801A13441C
:10387000C1E90030101E18BF012070471346F1E760
:1038800010B50748074A0849126882B0002301248E
:103890000370019401A80B70904702B010BD00BFE7
:1038A000AD050020B0050020AC050020704700BF2A
:1038B00000B583B00D4B0E4900228DF80420D3F8DB
:1038C0002025ADF80620D3F8C0040A4A0968136819
:1038D000002814BF4FF001204FF48070034301A86B
:1038E0001360884703B05DF804FB00BF007002401E
:1038F000B0050020A8050020F8B54B680B4F9A4290
:1039000028BF1A4615460C4606460968384604F094
:10391000F5F8C6E90075D4E90030401B2B44C4E932
:103920000030003818BF0120F8BD00BF6803002038
:1039300070B54B689A4228BF1A460D461446064693
:1039400062B91346C6E90034D5E90032121B23449C
:10395000C5E90032201E18BF012070BD0968024869
:1039600004F0CCF8004BEDE7680300204FF08053E3
:10397000D3F83031082B13D0164B17499A7B00200F
:10398000032A087011D010B51C6882B094B1134B93
:103990000122DA64BFF36F8FBFF34F8F02B010BD07
:1039A0000E4B0022C3F81C2CE6E70D486FF4803163
:1039B000FFF7D4BD6FF480310948FFF7CFFD094B05
:1039C000ADF8064006221B688DF8042001A8984730
:1039D00002B010BD80040020A0050020007002404D
:1039E000A4050020B005002010B51E4BD3F80044FC
:1039F000C3F8004482B0BFF36F8FBFF34F8FBFF3A4
:103A00006F8FBFF34F8FE10508D5174B174A1B681F
:103A100002200121019001A811709847A20508D544
:103A2000114B124A1B6803200021019001A811705C
:103A30009847630514D50D4B1A788AB1094A0121BC
:103A400000201870C2F808159165BFF36F8FBFF39F
:103A50004F8F054B04221B6801920DEB0200984723
:103A600002B010BD00700240B0050020AD0500207E
:103A700030B53C4B3C491C780A68200683B004F002
:103A80000F0316D41033012000FA03F31A430A601F
:103A9000364A126813420AD1354B8DF807000622C8
:103AA0001B688DF804208DF8064001A8984703B0E4
:103AB00030BD01259D402A430A602E491AB231F8D3
:103AC000133003F1804303F51C331968E1B1002181
:103AD0001960BFF36F8FBFF34F8F4FF08053802C6F
:103AE000D3F8303121D0082B04BF234BC3F81C1C62
:103AF000224B00211970224B110103EB0212927B21
:103B0000032A2AD05B5843B3184B1B681D40CED103
:103B1000174B8DF8064006221B688DF804208DF89F
:103B2000075001A8984703B030BD082B08BF124BBF
:103B3000124A08BFC3F81C1C124B0021117093F8E5
:103B40009E20032A03D0D3F89030002BDCD16FF0F5
:103B500001010648FFF702FDD6E7E9430348FFF7F6
:103B6000FDFCD1E7AC050020A8050020A40500203D
:103B7000B00500202C86020000700240A005002045
:103B800010050020800400202DE9F04FDFF810A27E
:103B9000DFF81482DAF80040D8F80030234087B00C
:103BA00000F0908013F0012200F08F8092FAA2F4CE
:103BB000002C00F08F80B4FA84F301271D469F404B
:103BC000FB430F2D009319D8DFF8E0A10FFA85F918
:103BD0000AEB09164FEA09191F46B2895AF809304B
:103BE000716804A82C46984708B94AF8090065F09E
:103BF0007F094FFA89F905F0080123E0103DECB286
:103C0000624A2507A3464FEA041102EB04164FFA55
:103C100084F968D425465E4B04F5947253F822303B
:103C2000B28971683768019304A8B847049A22B131
:103C3000059A019B934200F28280009F0BF00801DD
:103C400000B930604FF08053D3F83031082B00F0CA
:103C50008F80D8F80030059A3B40C8F80030B36830
:103C60001344B3604B4B0120B9F1000F1870049856
:103C700048DB002956D0464BAD00C3F8A007C3F877
:103C8000A42728232B44DBB203F1804303F51C3324
:103C900001221A60BFF36F8FBFF34F8F3E4A3F4B35
:103CA0003B4913EA290338BF134633F8142002F1C5
:103CB000804202F51C3202E0D1F8003113B91368DA
:103CC000002BF9D007B0BDE8F08F93FAA3F4002CD5
:103CD0007FF471AF4FF0FF334FF010092B4E00937C
:103CE0002546CB4697E72A4BD3F8C034D8034BD5AB
:103CF00055587168B289009F04A80023A84725463B
:103D000008219DE7002938D105EB85039B0003F1CD
:103D1000804303F51C33AD00C3F80006C3F8042646
:103D20000423AFE705EB85039B0003F1804303F514
:103D30001C33AD00C3F80007C3F80427A1E7022431
:103D40000099B4731648FFF709FC164B8DF80F4025
:103D500006221B688DF80EB08DF80C2003A898473A
:103D6000DAF80040D8F8003023407FF41BAFA9E711
:103D7000074B8222C3F81C2C6BE7054BAD00C3F840
:103D8000A006C3F8A426CBE7254649E78004002017
:103D900000700240A0050020188602002C86020058
:103DA000A4050020B0050020A80500201005002073
:103DB00010B54FF0805382B0D3F83031082B18D0B3
:103DC000164B174C93F83E200021032A217006D091
:103DD0001B6B9BB102B0BDE81040FFF7D5BE114888
:103DE0006FF40021FFF7BAFB2378002BF2D002B06A
:103DF00010BD0D4B0022C3F81C2CE1E76FF400212D
:103E00000848FFF7ABFB094B062103221B688DF81E
:103E10000410ADF8062001A89847E5E780040020CB
:103E2000A0050020A405002000700240B00500207D
:103E30004FF08053D3F83031082B0BD0124B13497D
:103E400093F88E200020032A087002D0D3F8803027
:103E50002BB170470E4B0022C3F81C2CEEE700B5C7
:103E60006FF0807183B00B48FFF778FB0A4B062197
:103E700008221B688DF80410ADF8062001A89847A9
:103E800003B05DF804FB00BF80040020A005002003
:103E900000700240A4050020B00500204FF08053C0
:103EA000D3F83031082B10D0144B154993F81E214C
:103EB0000020032A087003D0D3F8103153B17047A3
:103EC00010486FF48071FFF749BB0F4B0022C3F815
:103ED0001C2CE9E700B56FF4807183B00948FFF747
:103EE0003DFB0A4B062188221B688DF80410ADF8B3
:103EF000062001A8984703B05DF804FB8004002069
:103F0000A0050020A405002000700240B00500209C
:103F10004FF08053D3F83031082B10D00A4B0B49A7
:103F200093F89E200020032A087003D0D3F8903025
:103F300003B1704706486FF00101FFF70FBB054B57
:103F40000022C3F81C2CE9E780040020A005002013
:103F5000A4050020007002404FF08053D3F83031A8
:103F6000082B10D00A4B0B4993F80E210020032A8E
:103F7000087003D0D3F8003103B1704706486FF0E2
:103F80008001FFF7EBBA054B0022C3F81C2CE9E7D0
:103F900080040020A0050020A4050020007002403D
:103FA0004FF08053D3F83031082B10D00A4B0B4917
:103FB00093F8EE200020032A087003D0D3F8E030F5
:103FC00003B1704706486FF02001FFF7C7BA054BF1
:103FD0000022C3F81C2CE9E780040020A005002083
:103FE000A4050020007002404FF08053D3F8303118
:103FF000082B10D00A4B0B4993F8FE200020032A0F
:10400000087003D0D3F8F03003B1704706486FF062
:104010004001FFF7A3BA054B0022C3F81C2CE9E7C7
:1040200080040020A0050020A405002000700240AC
:104030004FF08053D3F83031082B10D00A4B0B4986
:1040400093F8AE200020032A087003D0D3F8A030E4
:1040500003B1704706486FF00201FFF77FBA054BC6
:104060000022C3F81C2CE9E780040020A0050020F2
:10407000A4050020007002404FF08053D3F8303187
:10408000082B10D00A4B0B4993F8BE200020032ABE
:10409000087003D0D3F8B03003B1704706486FF012
:1040A0000401FFF75BBA054B0022C3F81C2CE9E7BB
:1040B00080040020A0050020A4050020007002401C
:1040C0004FF08053D3F83031082B10D00A4B0B49F6
:1040D00093F8CE200020032A087003D0D3F8C03014
:1040E00003B1704706486FF00801FFF737BA054B78
:1040F0000022C3F81C2CE9E780040020A005002062
:10410000A4050020007002404FF08053D3F83031F6
:10411000082B10D00A4B0B4993F8DE200020032A0D
:10412000087003D0D3F8D03003B1704706486FF061
:104130001001FFF713BA054B0022C3F81C2CE9E766
:1041400080040020A0050020A4050020007002408B
:1041500010B54FF0805382B0D3F83031082B17D010
:10416000164B174C9A7F0021032A217006D01B6939
:104170009BB102B0BDE81040FFF706BD11486FF4D7
:104180000031FFF7EBF92378002BF2D002B010BD1D
:104190000D4B0022C3F81C2CE2E76FF400310948F4
:1041A000FFF7DCF9094B062101221B688DF804108A
:1041B000ADF8062001A89847E5E700BF800400207D
:1041C000A0050020A405002000700240B0050020DA
:1041D00010B54FF0805382B0D3F83031082B18D08F
:1041E000174B184C93F84E200021032A217006D05B
:1041F0001B6C9BB102B0BDE81040FFF7C5BC124874
:104200006FF48011FFF7AAF92378002BF2D002B0E7
:1042100010BD0E4B0022C3F81C2CE1E76FF4801197
:104220000948FFF79BF90A4B042206211B688DF809
:104230000410ADF806200DEB02009847E4E700BF3C
:1042400080040020A0050020A4050020007002408A
:10425000B005002010B54FF0805382B0D3F8303154
:10426000082B18D0164B174C93F85E200021032A18
:10427000217006D01B6D9BB102B0BDE81040FFF766
:1042800083BC11486FF40011FFF768F92378002B05
:10429000F2D002B010BD0D4B0022C3F81C2CE1E798
:1042A0006FF400110848FFF759F9094B0621052260
:1042B0001B688DF80410ADF8062001A89847E5E7C3
:1042C00080040020A0050020A4050020007002400A
:1042D000B005002010B54FF0805382B0D3F83031D4
:1042E000082B18D0164B174C93F86E200021032A88
:1042F000217006D01B6E9BB102B0BDE81040FFF7E5
:1043000043BC11486FF48001FFF728F92378002B94
:10431000F2D002B010BD0D4B0022C3F81C2CE1E717
:104320006FF480010848FFF719F9094A062312685B
:104330008DF80430ADF8063001A89047E6E700BFDD
:1043400080040020A0050020A40500200070024089
:10435000B005002010B54FF0805382B0D3F8303153
:10436000082B18D0164B174C93F87E200021032AF7
:10437000217006D01B6F9BB102B0BDE81040FFF763
:1043800003BC11486FF40001FFF7E8F82378002B15
:10439000F2D002B010BD0D4B0022C3F81C2CE1E797
:1043A0006FF400010848FFF7D9F8094B06210722EE
:1043B0001B688DF80410ADF8062001A89847E5E7C2
:1043C00080040020A0050020A40500200070024009
:1043D000B005002010B54FF0805382B0D3F83031D3
:1043E000082B18D0164B174C93F82E200021032AC7
:1043F000217006D01B6A9BB102B0BDE81040FFF7E8
:10440000C3BB11486FF48021FFF7A8F82378002B75
:10441000F2D002B010BD0D4B0022C3F81C2CE1E716
:104420006FF480210848FFF799F8094B0621022212
:104430001B688DF80410ADF8062001A89847E5E741
:1044400080040020A0050020A40500200070024088
:10445000B00500202DE9F04F514BD3F86C54C3F850
:104460006C5483B0BFF36F8FBFF34F8FDFF8489169
:10447000F5B14C4E4C4FDFF84481DFF834A195FA8A
:10448000A5F43168002C68D0B4FA84F0012303FA53
:1044900000FB0F28044625EA0B0523DDDAF800307F
:1044A0004BEA01011BEA030F31600AD0002DE6D16F
:1044B00099F80030002B70D103B0BDE8F04FFFF742
:1044C00063BBA0F11002D2B2062001218DF80400D6
:1044D0003B688DF806208DF8071001A89847002D3D
:1044E000CDD1E5E738F8103003F1804303F51C33F4
:1044F0004BEA01011A683160DAB100221A60BFF399
:104500006F8FBFF34F8F4FF08053D3F8303168B3C4
:10451000082B04BF224BC3F81C2C244B002289F823
:10452000002003EB00120101927B032A17D05B5895
:10453000ABB1DAF800301BEA0303B7D1062164F00F
:104540007F028DF804108DF8062039688DF8073049
:1045500001A88847002D92D1AAE71022B4E70121D3
:104560008140C9431248FEF7F9FFE2E7082B04BF78
:104570000B4BC3F81C0C0F4B002289F8002093F85A
:104580009E20032A03D0D3F89030002BD1D16FF0B6
:1045900001010748FEF7E2FFCBE703B0BDE8F08F6B
:1045A00000700240A8050020B00500201005002082
:1045B000A405002080040020A00500202C86020015
:1045C0002DE9F04F664D674C95F900902F782368E0
:1045D000DFF898A1DFF89C81DAF800106FEA090291
:1045E00007F00F06DB43D20F9BB206EB02124FF02F
:1045F000010B0B430BFA02F21342D8F8801485B07A
:1046000015D1594F03AE21F07F01297057486FF043
:104610000111FEF7A3FF23683A68052143F0010367
:10462000039130462360904705B0BDE8F08F00202D
:104630000091FBF7CFFFB9F1000F00994FEA061088
:1046400022DB06F11003DAF800E0DFF82CC10BFAE8
:1046500003FB3BEA0E0300EB0C026FEA0B094FD1A0
:104660004CF800300EEA0903CAF80030236803EA68
:104670000903236003233C4F937303AE0020009192
:10468000FBF7B0FF0099BEE73B0712D4802F55D04F
:1046900006F2DA335B00C8F80038D8F80438D8F8E6
:1046A0000428DBB243F002031343C8F80438D8F8F7
:1046B00004382268DAF800C00123B3406CEA02062D
:1046C0001E4202D1284F03AED8E72CEA03061A4354
:1046D000274B226000221A5018448DF80E700323D5
:1046E000214F8373CAF800608DF80F3003AE0623A4
:1046F0008DF80C3030463B68009198470099BDE733
:104700000020CDE90012FBF765FF236817F00807CA
:1047100003EA0903DDE90012236007D106F5947668
:1047200048F82670BFF36F8FBFF34F8F0020CDE99D
:104730000012FBF757FFDDE900129BE740F2B4736C
:10474000C8F80038D8F80438D8F80428DBB243F0A9
:1047500004031343C8F80438D8F80438A9E700BFA5
:10476000AC050020A8050020B0050020A40500200D
:10477000100500200070024080040020F0B50446BF
:1047800083B00020FBF726FF04F00F0522064FEA56
:1047900005111CD44048DFF814C105F110020123B3
:1047A00093400268DF43934301EB0C064BD14CF876
:1047B00001303A490B683A403B4002600B600323EA
:1047C000B373002003B0BDE8F040FBF70BBF230735
:1047D00013D4802C324A4ED005F2DA335B00C2F893
:1047E0000038D2F80438D2F80408DBB243F00203F0
:1047F0000343C2F80438D2F80438284E264F3268F2
:1048000038680123AB4060EA02051D42D9D020EA96
:1048100003001A4306238DF80430224B3860002031
:104820005850214D8DF8064019440324326001A8E8
:104830002A688DF807408C739047002003B0BDE8CC
:10484000F040FBF7CFBE0020FBF7C4FE134A13680D
:1048500014F0080403EA0703136008D1104B05F5B0
:10486000947543F82540BFF36F8FBFF34F8F00203F
:10487000FBF7B8FEA3E740F2B473C2F80038D2F8F1
:104880000438D2F80408DBB243F004030343C2F84F
:104890000438D2F80438B0E7A4050020A8050020A9
:1048A0000070024010050020B005002080040020A8
:1048B000F8B52F4DD5F80413002951D000244FF03E
:1048C000010E264691FAA1F02A4AB0FA80F34FEA87
:1048D000830C62440EFA03F360B3106821EA03010B
:1048E00028B11660BFF36F8FBFF34F8F1C430029B1
:1048F000E8D104F4000634F4000426D01E4F01254C
:1049000094FAA4F213469AB1B3FA83F305FA03F2C8
:1049100024EA020457F823309847B4B194FAA4F378
:10492000002BF1D1984794FAA4F21346002AEBD158
:104930009047E5E7D5F88031002BC3D0C5F880015A
:10494000BFF36F8FBFF34F8FBCE70C4B1B780BB9D6
:10495000FFF71AF906B9F8BDBDE8F840FFF730BE19
:10496000064B1B78002BF6D1BDE8F840FFF70CB9D9
:10497000007002400071024040860200A005002045
:1049800010B4474C2278002A40F086804549464BB7
:1049900008604FF4007C40210120207083F89E20A5
:1049A000A3F89C10C3F89020C3F89820A3F8AC108B
:1049B00083F8AE20C3F8A020C3F8A820A3F8BC1049
:1049C00083F8BE20C3F8B020C3F8B820A3F8CC10F9
:1049D00083F8CE20C3F8C020C3F8C820A3F8DC10A9
:1049E00083F8DE20C3F8D020C3F8D820A3F8EC1059
:1049F00083F8EE20C3F8E020C3F8E820A3F8FC1009
:104A000083F8FE20C3F8F020C3F8F820A3F80C11B7
:104A100083F80E21C3F80021C3F80821A3F81CC1B4
:104A200083F81E21C3F81021C3F8182199819A73C5
:104A30001A609A6099839A771A619A61998583F8C6
:104A40002E201A629A62998783F83E201A639A632D
:104A5000A3F84C1083F84E201A649A64A3F85C10F3
:104A600083F85E201A659A65A3F86C1083F86E20AF
:104A70001A669A66A3F87C1083F87E201A679A67F4
:104A8000A3F88CC083F88E20C3F88020C3F8882058
:104A900010465DF8044B704708205DF8044B7047E2
:104AA000B4050020B0050020800400200249034A1C
:104AB00000230B6013707047B0050020B405002080
:104AC000884B4FF4006210B5C3F80024BFF36F8F1A
:104AD000BFF34F8F4FF08053D3E94C23082A34D0D3
:104AE000804A0123C2F80035BFF36F8FBFF34F8FA9
:104AF000D2F800341B05FBD54FF40063C2F8003434
:104B0000BFF36F8FBFF34F8F4FF08053D3F8303127
:104B1000082B5CD0734B744A74498020C3F81C0581
:104B2000002440F2FF10C3F8304510604FF080526F
:104B30000C60D2F8301108292DD06D486D496E4BAC
:104B4000047002220C701A7010BDA3B10020FBF794
:104B500041FD6A4BD3F8002C002A00F09D8003220F
:104B6000C3F8142D0020FBF73DFD4FF08053D3F820
:104B70003031082BB4D10020FBF72CFD5F4BD3F86C
:104B8000002C002A00F09280C022C3F8142C0020D0
:104B9000FBF728FDA4E75649C3F81C4C5548564B73
:104BA0000C70022104701970D2F83431002BCBD074
:104BB0002046FBF70FFD514BD3F8002C002A5ED0A6
:104BC000C3F8144DBDE810400020FBF70BBD0020DA
:104BD000FBF700FD494BD3F8002C002A70D00022CF
:104BE000C3F8142C0020FBF7FDFC4FF08053D3E9F1
:104BF0004C23082A8ED1ABB30020FBF7EBFC3F4BD4
:104C0000D3F8002C002A68D149F27531C3F8001C92
:104C1000C3F8142DC3F8001C0020FBF7E3FC4FF091
:104C20008053D3E94C23082A7FF474AFD3B100201A
:104C3000FBF7D0FC314BD3F8002C002A49D149F2C4
:104C400075320321C3F8002CC3F8141DC3F8002CDF
:104C50000020FBF7C7FC4FF08053D3F83031082B0E
:104C60007FF458AF1F4B40F2E3714022C3F80018A5
:104C7000C3F80428BFF36F8FBFF34F8F4AE749F2A1
:104C80007531C3F8001CC3F8142DC3F8001CBDE82F
:104C900010400020FBF7A6BC49F275320321C3F88F
:104CA000002CC3F8141DC3F8002C5BE749F27532E1
:104CB000C021C3F8002CC3F8141CC3F8002C66E70D
:104CC00049F27531C3F8001CC3F8142CC3F8001C5A
:104CD00088E70322C3F8142DBAE70022C3F8142D85
:104CE0009AE700BF00700240A8050020A40500203C
:104CF000A0050020AC050020B405002000E006401F
:104D00000E4A0F4B0F494FF0000C10B4604508BF1E
:104D100013460D4C0D4A84F800C0C2F80433C0237A
:104D200081F8273380234B600123C2F80435BFF399
:104D30006F8FBFF34F8F5DF8044B70470714C001AE
:104D40000714E00100E100E0AD0500200070024022
:104D50006B4B8022C3F884215B68180600D470472F
:104D60002DE9F04F674D684E2B6832684FEA1349C2
:104D70004FEA094959EA020983B015D0634F99FAFD
:104D8000A9F4002C00F09080B4FA84FA012202FA0F
:104D90000AF1BAF10F0F29EA010943DD5FEA0A714E
:104DA0001CD5B9F1000FEAD1594B40F2FF11002296
:104DB0002960C3F80425BFF36F8FBFF34F8F504AAC
:104DC0008021C2F88410BFF34F8FBFF36F8F4FF075
:104DD000FF32C3F8082303B0BDE8F08F0AF00F04D8
:104DE00004F1100302FA03FA6FEA0A0807EB041B46
:104DF0000020FBF7EFFB33683AEA03025AD103EADB
:104E0000080333602B68CBF8002003EA08032B600B
:104E100003238BF80E300020FBF7E4FBB9F1000F01
:104E2000ADD1C1E71AF00800BBD1FBF7D3FB394B7A
:104E30004AF080044FEA0A1C03EB0A10BAF1000F93
:104E40004CD0334A0AF2DA335B00C2F80038D2F8A9
:104E50000438D2F80418DBB243F002030B43C2F863
:104E60000438D2F804382A683168012303FA0AF3B7
:104E700061EA020E1EEA030FCDD021EA03011A43B4
:104E8000254B8DF80640234C31602A6000211A68BA
:104E900044F80C1003238DF80730837306238DF834
:104EA000043001A89047B6E7BB466FF480384FF452
:104EB000803A9DE70020FBF78DFB2A6802EA080292
:104EC0002A6004F59473124A002042F82300BFF3CD
:104ED0006F8FBFF34F8FFBF785FB99E70C4A40F2CA
:104EE000B473C2F80038D2F80438D2F80418DBB230
:104EF00043F004030B43C2F80438D2F80438B2E795
:104F000000E100E0A8050020A405002080040020A6
:104F10000070024010050020B0050020044B1B78F3
:104F2000012B83BF034B5868C0F3C01000207047AB
:104F3000B405002000E100E02DE9F04F002083B02F
:104F4000FBF748FB6B4B1B783BB900270020FBF7B6
:104F500049FB384603B0BDE8F08F674D674E03F05C
:104F6000FF072B6832684FEA134A4FEA0A4A5AEAA7
:104F7000020A14D09AFAAAF4002C00F08D80B4FA38
:104F800084FB012202FA0BF1BBF10F0F2AEA010A9E
:104F90003DDD5FEA0B7015D5BAF1000FEAD140F2A2
:104FA000FF13574A2B60D2F8003413F40073CCD1AE
:104FB0000121C2F82C15D2F800148905C6D5C2F813
:104FC0002C35C2E70BF00F0404F1100302FA03FBC7
:104FD0004C4B6FEA0B0803EB04190020FBF7FAFABD
:104FE00030683BEA00025ED1C9F800202A6800EA76
:104FF000080002EA080230602A60032389F80E30B4
:105000000020FBF7EFFABAF1000FB3D1C7E71BF0AE
:105010000800C1D1FBF7DEFA3B4B4BF080044FEAAE
:105020000B1003EB0B11BBF1000F50D0344A0BF205
:10503000DA335B00C2F80038D2F80438D2F804C87A
:10504000DBB243F0020343EA0C03C2F80438D2F89F
:1050500004382A68D6F800C0012303FA0BF36CEA7F
:10506000020E1EEA030FCBD01A438DF806402CEA3D
:105070000304264B2A601A68234B346000241C501A
:105080004FF0030C06238DF807C081F80EC08DF891
:10509000043001A89047B3E7DFF868906FF48038D8
:1050A0004FF4803B99E70020FBF794FA2A68144BF1
:1050B00004F5947402EA080200202A6043F82400F0
:1050C000BFF36F8FBFF34F8FFBF78CFA95E70C4A56
:1050D00040F2B473C2F80038D2F80438D2F804C8E9
:1050E000DBB243F0040343EA0C03C2F80438D2F8FD
:1050F0000438AEE7AD050020A8050020A405002077
:10510000007002408004002010050020B00500203F
:1051100010B50020FBF75EFA174B1B7803F0FF0475
:1051200063B1164AD2F82C356BB14FF08053002191
:10513000D3F83031C2F82C15082B0AD00020FBF729
:1051400051FA204610BD1C460020FBF74BFA2046C2
:1051500010BD0B4BD3F8002C4AB949F27532C0216F
:10516000C3F8002CC3F8141CC3F8002CE6E7C022D7
:10517000C3F8142CE2E700BFAD0500200070024028
:1051800000E00640024B034AC3F80823704700BF03
:105190000070024004148001024B034AC3F8042348
:1051A000704700BF0070024004148001014B0022D0
:1051B0001A707047AD050020064B10F0800F03F108
:1051C000900218BF134600F00F0003EB00139889FC
:1051D000704700BF80040020064A010600F00F035C
:1051E0004CBFD2F81005D2F81405D84000F00100E9
:1051F000704700BF007002402DE9F041040600F046
:105200000F0541D42D4B2E4E5B5D012707FA03F3AA
:10521000C6F80433D6F81435EB40DB074BD4D6F888
:10522000142507FA05F31343C6F81435BFF36F8F3F
:10523000BFF34F8F002D3ED010F008043BD1204625
:10524000FBF7C8F92046FBF7C5F91E4A05F1100324
:105250009F40136805F5947523EA070313606FEA0E
:10526000070846F82540BFF36F8FBFF34F8F2046E6
:10527000FBF7B8F9144A136803EA080313602046E1
:10528000BDE8F041FBF7AEB9104B0D4A595D012363
:1052900003FA01F1C2F80413D2F81015E940C90766
:1052A00009D4D2F81015AB400B43C2F81035BFF348
:1052B0006F8FBFF34F8FBDE8F08100BF0086020003
:1052C00000700240A8050020A40500200C86020002
:1052D000F0B5044683B00020FBF77CF904F00F051D
:1052E00022064FEA05112FD45348DFF868C105F1B3
:1052F0001002012393400268DF43934301EB0C0645
:1053000071D13A4002604D4A4CF8013013683B407D
:1053100013600323B3730020FBF764F948490122AB
:10532000D1F81435AA4023EA0203C1F81435BFF3BB
:105330006F8FBFF34F8F434B595D414A01238B4021
:10534000C2F8083303B0F0BD230713D4802C3C4AC5
:1053500061D005F2DA335B00C2F80038D2F80438C5
:10536000D2F80408DBB243F002030343C2F8043866
:10537000D2F80438DFF8C4E0DFF8BCC0DEF8007013
:10538000DCF800200123AB4062EA070018406FEA16
:10539000030625D03240CCF800202B4A8DF8064079
:1053A0000024545011441F4303238DF807308B739E
:1053B000264BCEF80070062201A81B688DF8042049
:1053C00098472046FBF70EF91D4AD2F810353340B6
:1053D000C2F81035BFF36F8FBFF34F8F1C4BABE795
:1053E000FBF700F9F0E70020FBF7F4F8134A136825
:1053F00014F0080403EA0703136008D1104B05F505
:10540000947243F82240BFF36F8FBFF34F8F002099
:10541000FBF7E8F87DE740F2B473C2F80038D2F841
:105420000438D2F80408DBB243F004030343C2F8A3
:105430000438D2F804389DE7A4050020A805002010
:10544000007002400086020010050020B005002018
:105450000C860200800400202DE9F843044604F085
:105460000F0500200E46FBF7B5F855B9394B1B78F0
:10547000A34206D010240020FBF7B4F82046BDE874
:10548000F883354B354F60B21C683968C343E44339
:10549000DB0FA4B205EB031301220C439A40144026
:1054A0002AD105EB450300284FEA83034FEA05158F
:1054B00029DBDFF8C0C02A486344DFF8BCC040F8ED
:1054C00005C005EB000C41EA020596E80700DFF88D
:1054D000AC803D604FF0000E4FF0800983E807007C
:1054E000CCE9013E8CF80EE00020C8F80491FBF7EF
:1054F00079F82046BDE8F88311240020FBF772F804
:105500002046BDE8F8833068DFF874C0DFF87480A7
:1055100000F06049B068B9F1005F634400F0010E2B
:1055200005EB080C06D0BEF1000F0AD10D4848F873
:105530000500C8E7BEF1000F07D10B4848F8050089
:10554000C1E70A4848F80500BDE7094848F80500E2
:10555000B9E700BFAC050020A8050020A405002085
:1055600080040020F938020031380200313902008D
:1055700059380200A8030020F937020000E100E0DA
:105580001404002010050020F8B5044604F00F05AF
:1055900000200E46FBF71EF84DB91E4B1B78A342A8
:1055A00005D010240020FBF71DF82046F8BD1A4B4B
:1055B0001A4960B21C680F68C243E443D20FA4B218
:1055C00005EB021201233C4393401C401CD11F43B6
:1055D000134B03F1900212EA200238BF1A4602EB85
:1055E00005134FEA051C9C60306842F80C000D4A18
:1055F00070680F60802158609C730020C2F804110D
:10560000FAF7F0FF2046F8BD11240020FAF7EAFF70
:105610002046F8BDAC050020A8050020A405002008
:105620008004002000E100E000487047680300208B
:10563000044B40F48070C3F81805BFF36F8FBFF3BD
:105640004F8F70470070024003062DE9F041044679
:105650000FD410F008070CD100F00F05AD0005F1D4
:10566000804505F51C3500F00F08D5F84464012E7F
:1056700008D00F4BC3F81845BFF36F8FBFF34F8FA0
:10568000BDE8F0813846FAF7A5FF0A4AC5F8A074CC
:10569000136808F1100806FA08F623EA06031360F7
:1056A000BFF36F8FBFF34F8F3846FAF79BFFE0E7EA
:1056B00000700240A8050020010718D4020600F07F
:1056C0000F0309D40B4A9B001A445068A0F1010053
:1056D000B0FA80F040097047074A03F5847352F826
:1056E0002300A0F10100B0FA80F0400970470020CB
:1056F000704700BF4074024000700240064BC3F880
:105700000C05BFF34F8F40F48070C3F80C05BFF356
:105710006F8FBFF34F8F70470070024010B50822A3
:105720000021044602F0BEF90E4BD3F8802422700B
:10573000D3F884246270D3F88824D3F88C1442EA16
:1057400001226280D3F89024D3F8941442EA012213
:10575000A280D3F89824D3F89C3442EA0323E38050
:1057600010BD00BF00700240034B0122DA64BFF39A
:105770006F8FBFF34F8F704700700240034B0122C1
:105780001A65BFF36F8FBFF34F8F704700700240F1
:10579000034B01225A65BFF36F8FBFF34F8F7047E2
:1057A00000700240014B1878704700BFAC05002024
:1057B0002DE9F047002384B0CDE902331C4AD2F82A
:1057C0000011012900F03B821E46194BD3F8042139
:1057D000012A00F02582164BD3F80821012A00F097
:1057E0001082134BD3F80C21012A00F0FB81104BDF
:1057F000D3F81021012A00F0E6810D4BD3F81421D3
:10580000012A00F0D1810A4BD3F81821012A00F0B7
:10581000B881074BD3F81C21012A0BD0044BD3F8D5
:105820007C21012A00F02C8256BB04B0BDE8F08731
:1058300000600040D3F804231106EFD50022C3F81E
:105840001C21D3F81C110091D3F87C110098012978
:1058500046F0800614D1C3F87C21D3F87C31019343
:105860004FF0A042019BD2F82015CD4B0291C2F817
:105870002015D3F820250392C3F8202546F00046D2
:10588000C84F00240125A30003F18043354203F5EE
:10589000C0430BD0D3F8100557F82420D3F81015C7
:1058A000C0F30520C1F3014102B190470134082C37
:1058B0004FEA4505E7D1002EB7DABA4CB84E0125BC
:1058C0004FF0A04794F960305A1C4BD0C3F3C2018B
:1058D00001F110020DEB020103F0070211F808CCF0
:1058E00005FA02F21CEA020FD9B203F03F0039D0E8
:1058F0001F2800F2368103464FF0A04909EB8302CE
:1059000005FA03F3D2F800C7D2F800E72EF4403EC0
:10591000C2F800E704EB000ECCF3014C9EF930E036
:10592000D2F800A754F82E80BCF1020F14BF4FF438
:10593000003E4FF4403E4EEA0A0EC2F800E7C9F8B6
:105940002035B8F1000F0DD08909032900F08C81B2
:10595000BCF1020F00F08581BCF1030F02D10229D6
:1059600000F0828194F96130581C4BD0C3F3C2011E
:1059700001F110020DEB020103F0070211F808CC4F
:1059800005FA02F21CEA020FD9B203F03F0039D047
:105990001F2800F2EA8003464FF0A04909EB83027A
:1059A00005FA03F3D2F800C7D2F800E72EF4403E20
:1059B000C2F800E704EB000ECCF3014C9EF930E096
:1059C000D2F800A754F82E80BCF1020F14BF4FF498
:1059D000003E4FF4403E4EEA0A0EC2F800E7C9F816
:1059E0002035B8F1000F0DD08909032900F041815D
:1059F000BCF1020F00F03A81BCF1030F02D1022981
:105A000000F0378194F96230591C4BD0C3F3C201C6
:105A100001F110020DEB020103F0070211F808CCAE
:105A200005FA02F21CEA020FD9B203F03F0039D0A6
:105A30001F2800F29E8003464FF0A04909EB830225
:105A400005FA03F3D2F800C7D2F800E72EF4403E7F
:105A5000C2F800E704EB000ECCF3014C9EF930E0F5
:105A6000D2F800A754F82E80BCF1020F14BF4FF4F7
:105A7000003E4FF4403E4EEA0A0EC2F800E7C9F875
:105A80002035B8F1000F0DD08909032900F0F68008
:105A9000BCF1020F00F0EF80BCF1030F02D102292C
:105AA00000F0EC8094F963305A1C4AD0C3F3C20171
:105AB00001F110020DEB020103F0070211F808CC0E
:105AC00005FA02F21CEA020FD9B203F03F0038D007
:105AD0001F2852D803464FF0A04909EB830205FA6C
